{
  "_format": "hh-sol-artifact-1",
  "contractName": "Marketplace",
  "sourceName": "contracts/marketplace.sol",
  "abi": [
    {
      "inputs": [
        {
          "internalType": "address",
          "name": "target",
          "type": "address"
        }
      ],
      "name": "AddressEmptyCode",
      "type": "error"
    },
    {
      "inputs": [
        {
          "internalType": "address",
          "name": "implementation",
          "type": "address"
        }
      ],
      "name": "ERC1967InvalidImplementation",
      "type": "error"
    },
    {
      "inputs": [],
      "name": "ERC1967NonPayable",
      "type": "error"
    },
    {
      "inputs": [],
      "name": "FailedCall",
      "type": "error"
    },
    {
      "inputs": [],
      "name": "InvalidInitialization",
      "type": "error"
    },
    {
      "inputs": [],
      "name": "NotInitializing",
      "type": "error"
    },
    {
      "inputs": [
        {
          "internalType": "address",
          "name": "owner",
          "type": "address"
        }
      ],
      "name": "OwnableInvalidOwner",
      "type": "error"
    },
    {
      "inputs": [
        {
          "internalType": "address",
          "name": "account",
          "type": "address"
        }
      ],
      "name": "OwnableUnauthorizedAccount",
      "type": "error"
    },
    {
      "inputs": [],
      "name": "ReentrancyGuardReentrantCall",
      "type": "error"
    },
    {
      "inputs": [],
      "name": "UUPSUnauthorizedCallContext",
      "type": "error"
    },
    {
      "inputs": [
        {
          "internalType": "bytes32",
          "name": "slot",
          "type": "bytes32"
        }
      ],
      "name": "UUPSUnsupportedProxiableUUID",
      "type": "error"
    },
    {
      "anonymous": false,
      "inputs": [
        {
          "indexed": false,
          "internalType": "uint64",
          "name": "version",
          "type": "uint64"
        }
      ],
      "name": "Initialized",
      "type": "event"
    },
    {
      "anonymous": false,
      "inputs": [
        {
          "indexed": true,
          "internalType": "address",
          "name": "nft",
          "type": "address"
        },
        {
          "indexed": true,
          "internalType": "uint256",
          "name": "tokenId",
          "type": "uint256"
        },
        {
          "indexed": false,
          "internalType": "uint256",
          "name": "lock",
          "type": "uint256"
        },
        {
          "indexed": false,
          "internalType": "uint256",
          "name": "price",
          "type": "uint256"
        },
        {
          "indexed": false,
          "internalType": "address",
          "name": "seller",
          "type": "address"
        }
      ],
      "name": "Lock",
      "type": "event"
    },
    {
      "anonymous": false,
      "inputs": [
        {
          "indexed": true,
          "internalType": "address",
          "name": "previousOwner",
          "type": "address"
        },
        {
          "indexed": true,
          "internalType": "address",
          "name": "newOwner",
          "type": "address"
        }
      ],
      "name": "OwnershipTransferred",
      "type": "event"
    },
    {
      "anonymous": false,
      "inputs": [
        {
          "indexed": true,
          "internalType": "address",
          "name": "nft",
          "type": "address"
        },
        {
          "indexed": true,
          "internalType": "uint256",
          "name": "tokenId",
          "type": "uint256"
        },
        {
          "indexed": false,
          "internalType": "address",
          "name": "seller",
          "type": "address"
        },
        {
          "indexed": false,
          "internalType": "uint256",
          "name": "price",
          "type": "uint256"
        },
        {
          "indexed": false,
          "internalType": "uint256",
          "name": "flag",
          "type": "uint256"
        }
      ],
      "name": "Packed",
      "type": "event"
    },
    {
      "anonymous": false,
      "inputs": [
        {
          "indexed": true,
          "internalType": "address",
          "name": "nft",
          "type": "address"
        },
        {
          "indexed": true,
          "internalType": "uint256",
          "name": "tokenId",
          "type": "uint256"
        },
        {
          "indexed": false,
          "internalType": "address",
          "name": "buyer",
          "type": "address"
        },
        {
          "indexed": false,
          "internalType": "uint256",
          "name": "price",
          "type": "uint256"
        },
        {
          "indexed": false,
          "internalType": "uint256",
          "name": "flag",
          "type": "uint256"
        }
      ],
      "name": "Purchased",
      "type": "event"
    },
    {
      "anonymous": false,
      "inputs": [
        {
          "indexed": true,
          "internalType": "address",
          "name": "nft",
          "type": "address"
        },
        {
          "indexed": true,
          "internalType": "uint256",
          "name": "tokenId",
          "type": "uint256"
        },
        {
          "indexed": false,
          "internalType": "uint256",
          "name": "flag",
          "type": "uint256"
        }
      ],
      "name": "SetFlag",
      "type": "event"
    },
    {
      "anonymous": false,
      "inputs": [
        {
          "indexed": true,
          "internalType": "address",
          "name": "nft",
          "type": "address"
        },
        {
          "indexed": true,
          "internalType": "uint256",
          "name": "tokenId",
          "type": "uint256"
        }
      ],
      "name": "Unpacked",
      "type": "event"
    },
    {
      "anonymous": false,
      "inputs": [
        {
          "indexed": true,
          "internalType": "address",
          "name": "implementation",
          "type": "address"
        }
      ],
      "name": "Upgraded",
      "type": "event"
    },
    {
      "inputs": [],
      "name": "UPGRADE_INTERFACE_VERSION",
      "outputs": [
        {
          "internalType": "string",
          "name": "",
          "type": "string"
        }
      ],
      "stateMutability": "view",
      "type": "function"
    },
    {
      "inputs": [
        {
          "internalType": "address",
          "name": "nft",
          "type": "address"
        },
        {
          "internalType": "uint256",
          "name": "tokenId",
          "type": "uint256"
        },
        {
          "internalType": "uint256",
          "name": "price",
          "type": "uint256"
        },
        {
          "internalType": "address",
          "name": "recipient",
          "type": "address"
        },
        {
          "internalType": "string",
          "name": "uri",
          "type": "string"
        }
      ],
      "name": "adapterRecv",
      "outputs": [],
      "stateMutability": "nonpayable",
      "type": "function"
    },
    {
      "inputs": [
        {
          "internalType": "address",
          "name": "nft",
          "type": "address"
        },
        {
          "internalType": "uint256",
          "name": "tokenId",
          "type": "uint256"
        }
      ],
      "name": "adapterSend",
      "outputs": [],
      "stateMutability": "nonpayable",
      "type": "function"
    },
    {
      "inputs": [
        {
          "internalType": "address",
          "name": "nft",
          "type": "address"
        },
        {
          "internalType": "uint256",
          "name": "tokenId",
          "type": "uint256"
        }
      ],
      "name": "buyNFT",
      "outputs": [],
      "stateMutability": "payable",
      "type": "function"
    },
    {
      "inputs": [
        {
          "internalType": "address",
          "name": "initialOwner",
          "type": "address"
        }
      ],
      "name": "init",
      "outputs": [],
      "stateMutability": "nonpayable",
      "type": "function"
    },
    {
      "inputs": [],
      "name": "owner",
      "outputs": [
        {
          "internalType": "address",
          "name": "",
          "type": "address"
        }
      ],
      "stateMutability": "view",
      "type": "function"
    },
    {
      "inputs": [],
      "name": "proxiableUUID",
      "outputs": [
        {
          "internalType": "bytes32",
          "name": "",
          "type": "bytes32"
        }
      ],
      "stateMutability": "view",
      "type": "function"
    },
    {
      "inputs": [],
      "name": "renounceOwnership",
      "outputs": [],
      "stateMutability": "nonpayable",
      "type": "function"
    },
    {
      "inputs": [
        {
          "internalType": "address",
          "name": "nft",
          "type": "address"
        },
        {
          "internalType": "uint256",
          "name": "tokenId",
          "type": "uint256"
        },
        {
          "internalType": "uint256",
          "name": "flag",
          "type": "uint256"
        }
      ],
      "name": "setFlag",
      "outputs": [],
      "stateMutability": "nonpayable",
      "type": "function"
    },
    {
      "inputs": [
        {
          "internalType": "address",
          "name": "nft",
          "type": "address"
        },
        {
          "internalType": "uint256",
          "name": "tokenId",
          "type": "uint256"
        },
        {
          "internalType": "uint256",
          "name": "price",
          "type": "uint256"
        }
      ],
      "name": "setPrice",
      "outputs": [],
      "stateMutability": "nonpayable",
      "type": "function"
    },
    {
      "inputs": [
        {
          "internalType": "address",
          "name": "nft",
          "type": "address"
        },
        {
          "internalType": "uint256",
          "name": "tokenId",
          "type": "uint256"
        },
        {
          "internalType": "uint256",
          "name": "price",
          "type": "uint256"
        }
      ],
      "name": "takePack",
      "outputs": [],
      "stateMutability": "nonpayable",
      "type": "function"
    },
    {
      "inputs": [
        {
          "internalType": "address",
          "name": "newOwner",
          "type": "address"
        }
      ],
      "name": "transferOwnership",
      "outputs": [],
      "stateMutability": "nonpayable",
      "type": "function"
    },
    {
      "inputs": [
        {
          "internalType": "address",
          "name": "nft",
          "type": "address"
        },
        {
          "internalType": "uint256",
          "name": "tokenId",
          "type": "uint256"
        }
      ],
      "name": "unPack",
      "outputs": [],
      "stateMutability": "nonpayable",
      "type": "function"
    },
    {
      "inputs": [
        {
          "internalType": "address",
          "name": "newImplementation",
          "type": "address"
        },
        {
          "internalType": "bytes",
          "name": "data",
          "type": "bytes"
        }
      ],
      "name": "upgradeToAndCall",
      "outputs": [],
      "stateMutability": "payable",
      "type": "function"
    }
  ],
  "bytecode": "0x60a06040523073ffffffffffffffffffffffffffffffffffffffff1660809073ffffffffffffffffffffffffffffffffffffffff16815250348015604257600080fd5b50608051612d0061006c60003960008181611461015281816114b601526116710152612d006000f3fe6080604052600436106100dd5760003560e01c806397cb27d61161007f578063ad3e3c3111610059578063ad3e3c3114610256578063c3607a5f1461027f578063d0c0f7f1146102a8578063f2fde38b146102d1576100dd565b806397cb27d6146101e6578063a82ba76f1461020f578063ad3cb1cc1461022b576100dd565b806352d1902d116100bb57806352d1902d14610150578063715018a61461017b5780637bcad744146101925780638da5cb5b146101bb576100dd565b806319ab453c146100e25780633011e16a1461010b5780634f1ef28614610134575b600080fd5b3480156100ee57600080fd5b50610109600480360381019061010491906120d1565b6102fa565b005b34801561011757600080fd5b50610132600480360381019061012d9190612134565b610499565b005b61014e600480360381019061014991906122cd565b610637565b005b34801561015c57600080fd5b50610165610656565b6040516101729190612342565b60405180910390f35b34801561018757600080fd5b50610190610689565b005b34801561019e57600080fd5b506101b960048036038101906101b49190612134565b61069d565b005b3480156101c757600080fd5b506101d0610830565b6040516101dd919061236c565b60405180910390f35b3480156101f257600080fd5b5061020d60048036038101906102089190612387565b610868565b005b61022960048036038101906102249190612387565b610a3f565b005b34801561023757600080fd5b50610240610eae565b60405161024d9190612446565b60405180910390f35b34801561026257600080fd5b5061027d60048036038101906102789190612134565b610ee7565b005b34801561028b57600080fd5b506102a660048036038101906102a19190612509565b61102c565b005b3480156102b457600080fd5b506102cf60048036038101906102ca9190612387565b61125c565b005b3480156102dd57600080fd5b506102f860048036038101906102f391906120d1565b611395565b005b600061030461141b565b905060008160000160089054906101000a900460ff1615905060008260000160009054906101000a900467ffffffffffffffff1690506000808267ffffffffffffffff161480156103525750825b9050600060018367ffffffffffffffff16148015610387575060003073ffffffffffffffffffffffffffffffffffffffff163b145b905081158015610395575080155b156103cc576040517ff92ee8a900000000000000000000000000000000000000000000000000000000815260040160405180910390fd5b60018560000160006101000a81548167ffffffffffffffff021916908367ffffffffffffffff160217905550831561041c5760018560000160086101000a81548160ff0219169083151502179055505b61042461142f565b61042c611441565b6104358661144b565b83156104915760008560000160086101000a81548160ff0219169083151502179055507fc7f505b2f371ae2175ee4913f4499e1f2633a7b5936321eed1cdaeb6115181d2600160405161048891906125f9565b60405180910390a15b505050505050565b828260008290503373ffffffffffffffffffffffffffffffffffffffff168173ffffffffffffffffffffffffffffffffffffffff16636352211e846040518263ffffffff1660e01b81526004016104f09190612623565b602060405180830381865afa15801561050d573d6000803e3d6000fd5b505050506040513d601f19601f820116820180604052508101906105319190612653565b73ffffffffffffffffffffffffffffffffffffffff1614610587576040517f08c379a000000000000000000000000000000000000000000000000000000000815260040161057e906126cc565b60405180910390fd5b836000808873ffffffffffffffffffffffffffffffffffffffff1673ffffffffffffffffffffffffffffffffffffffff168152602001908152602001600020600087815260200190815260200160002081905550848673ffffffffffffffffffffffffffffffffffffffff167f9ed5209c6fe86e61b83ed97b339992c9d9d408197db2791facb75970f8459bac3387600260405161062793929190612727565b60405180910390a3505050505050565b61063f61145f565b61064882611545565b6106528282611550565b5050565b600061066061166f565b7f360894a13ba1a3210667c828492db98dca3e2076cc3735a920a3ca505d382bbc60001b905090565b6106916116f6565b61069b600061177d565b565b828260008290503373ffffffffffffffffffffffffffffffffffffffff168173ffffffffffffffffffffffffffffffffffffffff16636352211e846040518263ffffffff1660e01b81526004016106f49190612623565b602060405180830381865afa158015610711573d6000803e3d6000fd5b505050506040513d601f19601f820116820180604052508101906107359190612653565b73ffffffffffffffffffffffffffffffffffffffff161461078b576040517f08c379a0000000000000000000000000000000000000000000000000000000008152600401610782906126cc565b60405180910390fd5b600084148061079a5750600184145b6107d9576040517f08c379a00000000000000000000000000000000000000000000000000000000081526004016107d0906127aa565b60405180910390fd5b848673ffffffffffffffffffffffffffffffffffffffff167fb5fbb51fb20d14e500434b8d5c577373b5b2cb4b2fb02f08043d529f5386aa1e866040516108209190612623565b60405180910390a3505050505050565b60008061083b611854565b90508060000160009054906101000a900473ffffffffffffffffffffffffffffffffffffffff1691505090565b6108a86040518060400160405280601f81526020017f6164617074657253656e64206e66743a20257320746f6b656e49643a20256400815250838361187c565b600082905060008173ffffffffffffffffffffffffffffffffffffffff16636352211e846040518263ffffffff1660e01b81526004016108e89190612623565b602060405180830381865afa158015610905573d6000803e3d6000fd5b505050506040513d601f19601f820116820180604052508101906109299190612653565b9050828473ffffffffffffffffffffffffffffffffffffffff167f39d60c234f0766f6ba0a913031909662325014ebaea4139b8d5eb9131700e81f60016000808973ffffffffffffffffffffffffffffffffffffffff1673ffffffffffffffffffffffffffffffffffffffff168152602001908152602001600020600088815260200190815260200160002054856040516109c6939291906127fb565b60405180910390a38173ffffffffffffffffffffffffffffffffffffffff166342966c68846040518263ffffffff1660e01b8152600401610a079190612623565b600060405180830381600087803b158015610a2157600080fd5b505af1158015610a35573d6000803e3d6000fd5b5050505050505050565b610a4761191b565b60008290503073ffffffffffffffffffffffffffffffffffffffff168173ffffffffffffffffffffffffffffffffffffffff1663081812fc846040518263ffffffff1660e01b8152600401610a9c9190612623565b602060405180830381865afa158015610ab9573d6000803e3d6000fd5b505050506040513d601f19601f82011682018060405250810190610add9190612653565b73ffffffffffffffffffffffffffffffffffffffff1614610b33576040517f08c379a0000000000000000000000000000000000000000000000000000000008152600401610b2a9061287e565b60405180910390fd5b60008060008573ffffffffffffffffffffffffffffffffffffffff1673ffffffffffffffffffffffffffffffffffffffff16815260200190815260200160002060008481526020019081526020016000205411610bc5576040517f08c379a0000000000000000000000000000000000000000000000000000000008152600401610bbc906128ea565b60405180910390fd5b6000808473ffffffffffffffffffffffffffffffffffffffff1673ffffffffffffffffffffffffffffffffffffffff1681526020019081526020016000206000838152602001908152602001600020543414610c56576040517f08c379a0000000000000000000000000000000000000000000000000000000008152600401610c4d90612956565b60405180910390fd5b8073ffffffffffffffffffffffffffffffffffffffff16636352211e836040518263ffffffff1660e01b8152600401610c8f9190612623565b602060405180830381865afa158015610cac573d6000803e3d6000fd5b505050506040513d601f19601f82011682018060405250810190610cd09190612653565b73ffffffffffffffffffffffffffffffffffffffff166108fc349081150290604051600060405180830381858888f19350505050158015610d15573d6000803e3d6000fd5b508073ffffffffffffffffffffffffffffffffffffffff166342842e0e8273ffffffffffffffffffffffffffffffffffffffff16636352211e856040518263ffffffff1660e01b8152600401610d6b9190612623565b602060405180830381865afa158015610d88573d6000803e3d6000fd5b505050506040513d601f19601f82011682018060405250810190610dac9190612653565b33856040518463ffffffff1660e01b8152600401610dcc93929190612976565b600060405180830381600087803b158015610de657600080fd5b505af1158015610dfa573d6000803e3d6000fd5b50505050818373ffffffffffffffffffffffffffffffffffffffff167f9ed5209c6fe86e61b83ed97b339992c9d9d408197db2791facb75970f8459bac336000808873ffffffffffffffffffffffffffffffffffffffff1673ffffffffffffffffffffffffffffffffffffffff1681526020019081526020016000206000878152602001908152602001600020546000604051610e99939291906129e8565b60405180910390a350610eaa611972565b5050565b6040518060400160405280600581526020017f352e302e3000000000000000000000000000000000000000000000000000000081525081565b828260008290503373ffffffffffffffffffffffffffffffffffffffff168173ffffffffffffffffffffffffffffffffffffffff16636352211e846040518263ffffffff1660e01b8152600401610f3e9190612623565b602060405180830381865afa158015610f5b573d6000803e3d6000fd5b505050506040513d601f19601f82011682018060405250810190610f7f9190612653565b73ffffffffffffffffffffffffffffffffffffffff1614610fd5576040517f08c379a0000000000000000000000000000000000000000000000000000000008152600401610fcc906126cc565b60405180910390fd5b60008411611018576040517f08c379a000000000000000000000000000000000000000000000000000000000815260040161100f90612a6b565b60405180910390fd5b6110248686863361198b565b505050505050565b6110506040518060600160405280602a8152602001612ca1602a9139868686611a39565b60008590508073ffffffffffffffffffffffffffffffffffffffff1663b48a2fa08487856040518463ffffffff1660e01b815260040161109293929190612a8b565b600060405180830381600087803b1580156110ac57600080fd5b505af11580156110c0573d6000803e3d6000fd5b5050505060008060008873ffffffffffffffffffffffffffffffffffffffff1673ffffffffffffffffffffffffffffffffffffffff16815260200190815260200160002060008781526020019081526020016000205411156112085761115b6040518060400160405280601e81526020017f6d61726b65743a202573206973206578697374204c6f636b206576656e74000081525086611adb565b836000808873ffffffffffffffffffffffffffffffffffffffff1673ffffffffffffffffffffffffffffffffffffffff168152602001908152602001600020600087815260200190815260200160002081905550848673ffffffffffffffffffffffffffffffffffffffff167f39d60c234f0766f6ba0a913031909662325014ebaea4139b8d5eb9131700e81f600087876040516111fb93929190612ac9565b60405180910390a3611254565b6112476040518060400160405280601b81526020017f6d61726b65743a202573206973206e6577206f6e65205f7061636b000000000081525086611adb565b6112538686868661198b565b5b505050505050565b818160008290503373ffffffffffffffffffffffffffffffffffffffff168173ffffffffffffffffffffffffffffffffffffffff16636352211e846040518263ffffffff1660e01b81526004016112b39190612623565b602060405180830381865afa1580156112d0573d6000803e3d6000fd5b505050506040513d601f19601f820116820180604052508101906112f49190612653565b73ffffffffffffffffffffffffffffffffffffffff161461134a576040517f08c379a0000000000000000000000000000000000000000000000000000000008152600401611341906126cc565b60405180910390fd5b838573ffffffffffffffffffffffffffffffffffffffff167ff158c4f69c397e48fd0630abb0e822e62627ca893444224ca0eadf9eff3aeaa260405160405180910390a35050505050565b61139d6116f6565b600073ffffffffffffffffffffffffffffffffffffffff168173ffffffffffffffffffffffffffffffffffffffff160361140f5760006040517f1e4fbdf7000000000000000000000000000000000000000000000000000000008152600401611406919061236c565b60405180910390fd5b6114188161177d565b50565b600080611426611b77565b90508091505090565b611437611ba2565b61143f611be2565b565b611449611ba2565b565b611453611ba2565b61145c81611c03565b50565b7f000000000000000000000000000000000000000000000000000000000000000073ffffffffffffffffffffffffffffffffffffffff163073ffffffffffffffffffffffffffffffffffffffff16148061150c57507f000000000000000000000000000000000000000000000000000000000000000073ffffffffffffffffffffffffffffffffffffffff166114f3611c89565b73ffffffffffffffffffffffffffffffffffffffff1614155b15611543576040517fe07c8dba00000000000000000000000000000000000000000000000000000000815260040160405180910390fd5b565b61154d6116f6565b50565b8173ffffffffffffffffffffffffffffffffffffffff166352d1902d6040518163ffffffff1660e01b8152600401602060405180830381865afa9250505080156115b857506040513d601f19601f820116820180604052508101906115b59190612b2c565b60015b6115f957816040517f4c9c8ce30000000000000000000000000000000000000000000000000000000081526004016115f0919061236c565b60405180910390fd5b7f360894a13ba1a3210667c828492db98dca3e2076cc3735a920a3ca505d382bbc60001b811461166057806040517faa1d49a40000000000000000000000000000000000000000000000000000000081526004016116579190612342565b60405180910390fd5b61166a8383611ce0565b505050565b7f000000000000000000000000000000000000000000000000000000000000000073ffffffffffffffffffffffffffffffffffffffff163073ffffffffffffffffffffffffffffffffffffffff16146116f4576040517fe07c8dba00000000000000000000000000000000000000000000000000000000815260040160405180910390fd5b565b6116fe611d53565b73ffffffffffffffffffffffffffffffffffffffff1661171c610830565b73ffffffffffffffffffffffffffffffffffffffff161461177b5761173f611d53565b6040517f118cdaa7000000000000000000000000000000000000000000000000000000008152600401611772919061236c565b60405180910390fd5b565b6000611787611854565b905060008160000160009054906101000a900473ffffffffffffffffffffffffffffffffffffffff169050828260000160006101000a81548173ffffffffffffffffffffffffffffffffffffffff021916908373ffffffffffffffffffffffffffffffffffffffff1602179055508273ffffffffffffffffffffffffffffffffffffffff168173ffffffffffffffffffffffffffffffffffffffff167f8be0079c531659141344cd1fd0a4f28419497f9722a3daafe3b4186f6b6457e060405160405180910390a3505050565b60007f9016d09d72d40fdae2fd8ceac6b6234c7706214fd39c1cd1e609a0528c199300905090565b61191683838360405160240161189493929190612b59565b6040516020818303038152906040527f0d26b925000000000000000000000000000000000000000000000000000000007bffffffffffffffffffffffffffffffffffffffffffffffffffffffff19166020820180517bffffffffffffffffffffffffffffffffffffffffffffffffffffffff8381831617835250505050611d5b565b505050565b6000611925611d75565b90506002816000015403611965576040517f3ee5aeb500000000000000000000000000000000000000000000000000000000815260040160405180910390fd5b6002816000018190555050565b600061197c611d75565b90506001816000018190555050565b816000808673ffffffffffffffffffffffffffffffffffffffff1673ffffffffffffffffffffffffffffffffffffffff168152602001908152602001600020600085815260200190815260200160002081905550828473ffffffffffffffffffffffffffffffffffffffff167f4522ac5e17505a5077136a0a1af3eeff89b4cf251211b73f48c55af50bafa1ac83856000604051611a2b939291906129e8565b60405180910390a350505050565b611ad584848484604051602401611a539493929190612b97565b6040516020818303038152906040527ff8f51b1e000000000000000000000000000000000000000000000000000000007bffffffffffffffffffffffffffffffffffffffffffffffffffffffff19166020820180517bffffffffffffffffffffffffffffffffffffffffffffffffffffffff8381831617835250505050611d5b565b50505050565b611b738282604051602401611af1929190612be3565b6040516020818303038152906040527fb60e72cc000000000000000000000000000000000000000000000000000000007bffffffffffffffffffffffffffffffffffffffffffffffffffffffff19166020820180517bffffffffffffffffffffffffffffffffffffffffffffffffffffffff8381831617835250505050611d5b565b5050565b60007ff0c57e16840df040f15088dc2f81fe391c3923bec73e23a9662efc9c229c6a0060001b905090565b611baa611d9d565b611be0576040517fd7e6bcf800000000000000000000000000000000000000000000000000000000815260040160405180910390fd5b565b611bea611ba2565b6000611bf4611d75565b90506001816000018190555050565b611c0b611ba2565b600073ffffffffffffffffffffffffffffffffffffffff168173ffffffffffffffffffffffffffffffffffffffff1603611c7d5760006040517f1e4fbdf7000000000000000000000000000000000000000000000000000000008152600401611c74919061236c565b60405180910390fd5b611c868161177d565b50565b6000611cb77f360894a13ba1a3210667c828492db98dca3e2076cc3735a920a3ca505d382bbc60001b611dbd565b60000160009054906101000a900473ffffffffffffffffffffffffffffffffffffffff16905090565b611ce982611dc7565b8173ffffffffffffffffffffffffffffffffffffffff167fbc7cd75a20ee27fd9adebab32041f755214dbc6bffa90cc0225b39da2e5c2d3b60405160405180910390a2600081511115611d4657611d408282611e94565b50611d4f565b611d4e611f18565b5b5050565b600033905090565b611d7281611d6a611f55611f76565b63ffffffff16565b50565b60007f9b779b17422d0df92223018b32b4d1fa46e071723d6817e2486d003becc55f00905090565b6000611da761141b565b60000160089054906101000a900460ff16905090565b6000819050919050565b60008173ffffffffffffffffffffffffffffffffffffffff163b03611e2357806040517f4c9c8ce3000000000000000000000000000000000000000000000000000000008152600401611e1a919061236c565b60405180910390fd5b80611e507f360894a13ba1a3210667c828492db98dca3e2076cc3735a920a3ca505d382bbc60001b611dbd565b60000160006101000a81548173ffffffffffffffffffffffffffffffffffffffff021916908373ffffffffffffffffffffffffffffffffffffffff16021790555050565b60606000808473ffffffffffffffffffffffffffffffffffffffff1684604051611ebe9190612c5a565b600060405180830381855af49150503d8060008114611ef9576040519150601f19603f3d011682016040523d82523d6000602084013e611efe565b606091505b5091509150611f0e858383611f81565b9250505092915050565b6000341115611f53576040517fb398979f00000000000000000000000000000000000000000000000000000000815260040160405180910390fd5b565b60006a636f6e736f6c652e6c6f679050600080835160208501845afa505050565b612055819050919050565b606082611f9657611f9182612010565b612008565b60008251148015611fbe575060008473ffffffffffffffffffffffffffffffffffffffff163b145b1561200057836040517f9996b315000000000000000000000000000000000000000000000000000000008152600401611ff7919061236c565b60405180910390fd5b819050612009565b5b9392505050565b6000815111156120235780518082602001fd5b6040517fd6bda27500000000000000000000000000000000000000000000000000000000815260040160405180910390fd5b61205d612c71565b565b6000604051905090565b600080fd5b600080fd5b600073ffffffffffffffffffffffffffffffffffffffff82169050919050565b600061209e82612073565b9050919050565b6120ae81612093565b81146120b957600080fd5b50565b6000813590506120cb816120a5565b92915050565b6000602082840312156120e7576120e6612069565b5b60006120f5848285016120bc565b91505092915050565b6000819050919050565b612111816120fe565b811461211c57600080fd5b50565b60008135905061212e81612108565b92915050565b60008060006060848603121561214d5761214c612069565b5b600061215b868287016120bc565b935050602061216c8682870161211f565b925050604061217d8682870161211f565b9150509250925092565b600080fd5b600080fd5b6000601f19601f8301169050919050565b7f4e487b7100000000000000000000000000000000000000000000000000000000600052604160045260246000fd5b6121da82612191565b810181811067ffffffffffffffff821117156121f9576121f86121a2565b5b80604052505050565b600061220c61205f565b905061221882826121d1565b919050565b600067ffffffffffffffff821115612238576122376121a2565b5b61224182612191565b9050602081019050919050565b82818337600083830152505050565b600061227061226b8461221d565b612202565b90508281526020810184848401111561228c5761228b61218c565b5b61229784828561224e565b509392505050565b600082601f8301126122b4576122b3612187565b5b81356122c484826020860161225d565b91505092915050565b600080604083850312156122e4576122e3612069565b5b60006122f2858286016120bc565b925050602083013567ffffffffffffffff8111156123135761231261206e565b5b61231f8582860161229f565b9150509250929050565b6000819050919050565b61233c81612329565b82525050565b60006020820190506123576000830184612333565b92915050565b61236681612093565b82525050565b6000602082019050612381600083018461235d565b92915050565b6000806040838503121561239e5761239d612069565b5b60006123ac858286016120bc565b92505060206123bd8582860161211f565b9150509250929050565b600081519050919050565b600082825260208201905092915050565b60005b838110156124015780820151818401526020810190506123e6565b60008484015250505050565b6000612418826123c7565b61242281856123d2565b93506124328185602086016123e3565b61243b81612191565b840191505092915050565b60006020820190508181036000830152612460818461240d565b905092915050565b600067ffffffffffffffff821115612483576124826121a2565b5b61248c82612191565b9050602081019050919050565b60006124ac6124a784612468565b612202565b9050828152602081018484840111156124c8576124c761218c565b5b6124d384828561224e565b509392505050565b600082601f8301126124f0576124ef612187565b5b8135612500848260208601612499565b91505092915050565b600080600080600060a0868803121561252557612524612069565b5b6000612533888289016120bc565b95505060206125448882890161211f565b94505060406125558882890161211f565b9350506060612566888289016120bc565b925050608086013567ffffffffffffffff8111156125875761258661206e565b5b612593888289016124db565b9150509295509295909350565b6000819050919050565b600067ffffffffffffffff82169050919050565b6000819050919050565b60006125e36125de6125d9846125a0565b6125be565b6125aa565b9050919050565b6125f3816125c8565b82525050565b600060208201905061260e60008301846125ea565b92915050565b61261d816120fe565b82525050565b60006020820190506126386000830184612614565b92915050565b60008151905061264d816120a5565b92915050565b60006020828403121561266957612668612069565b5b60006126778482850161263e565b91505092915050565b7f4e6f7420746865206f776e657200000000000000000000000000000000000000600082015250565b60006126b6600d836123d2565b91506126c182612680565b602082019050919050565b600060208201905081810360008301526126e5816126a9565b9050919050565b6000819050919050565b600061271161270c612707846126ec565b6125be565b6120fe565b9050919050565b612721816126f6565b82525050565b600060608201905061273c600083018661235d565b6127496020830185612614565b6127566040830184612718565b949350505050565b7f666c6167206e656564732031206f722030000000000000000000000000000000600082015250565b60006127946011836123d2565b915061279f8261275e565b602082019050919050565b600060208201905081810360008301526127c381612787565b9050919050565b60006127e56127e06127db846125a0565b6125be565b6120fe565b9050919050565b6127f5816127ca565b82525050565b600060608201905061281060008301866127ec565b61281d6020830185612614565b61282a604083018461235d565b949350505050565b7f4d61726b6574706c616365206e6f7420617070726f7665640000000000000000600082015250565b60006128686018836123d2565b915061287382612832565b602082019050919050565b600060208201905081810360008301526128978161285b565b9050919050565b7f4974656d206e6f74206c69737465640000000000000000000000000000000000600082015250565b60006128d4600f836123d2565b91506128df8261289e565b602082019050919050565b60006020820190508181036000830152612903816128c7565b9050919050565b7f496e636f72726563742070726963650000000000000000000000000000000000600082015250565b6000612940600f836123d2565b915061294b8261290a565b602082019050919050565b6000602082019050818103600083015261296f81612933565b9050919050565b600060608201905061298b600083018661235d565b612998602083018561235d565b6129a56040830184612614565b949350505050565b6000819050919050565b60006129d26129cd6129c8846129ad565b6125be565b6120fe565b9050919050565b6129e2816129b7565b82525050565b60006060820190506129fd600083018661235d565b612a0a6020830185612614565b612a1760408301846129d9565b949350505050565b7f5072696365206d757374206265203e2030000000000000000000000000000000600082015250565b6000612a556011836123d2565b9150612a6082612a1f565b602082019050919050565b60006020820190508181036000830152612a8481612a48565b9050919050565b6000606082019050612aa0600083018661235d565b612aad6020830185612614565b8181036040830152612abf818461240d565b9050949350505050565b6000606082019050612ade60008301866129d9565b612aeb6020830185612614565b612af8604083018461235d565b949350505050565b612b0981612329565b8114612b1457600080fd5b50565b600081519050612b2681612b00565b92915050565b600060208284031215612b4257612b41612069565b5b6000612b5084828501612b17565b91505092915050565b60006060820190508181036000830152612b73818661240d565b9050612b82602083018561235d565b612b8f6040830184612614565b949350505050565b60006080820190508181036000830152612bb1818761240d565b9050612bc0602083018661235d565b612bcd6040830185612614565b612bda6060830184612614565b95945050505050565b60006040820190508181036000830152612bfd818561240d565b9050612c0c6020830184612614565b9392505050565b600081519050919050565b600081905092915050565b6000612c3482612c13565b612c3e8185612c1e565b9350612c4e8185602086016123e3565b80840191505092915050565b6000612c668284612c29565b915081905092915050565b7f4e487b7100000000000000000000000000000000000000000000000000000000600052605160045260246000fdfe6164617074657252656376206e66743a20257320746f6b656e49643a2025642070726963653a20256420a264697066735822122058fd89a882f62ad1df9fdccccf57a5ed633cdecaca0e4603adaeb73a60f0e5d064736f6c634300081c0033",
  "linkReferences": {},
  "deployedLinkReferences": {}
}