{
  "_format": "hh-sol-artifact-1",
  "contractName": "Marketplace",
  "sourceName": "contracts/marketplace.sol",
  "abi": [
    {
      "inputs": [
        {
          "internalType": "address",
          "name": "target",
          "type": "address"
        }
      ],
      "name": "AddressEmptyCode",
      "type": "error"
    },
    {
      "inputs": [
        {
          "internalType": "address",
          "name": "implementation",
          "type": "address"
        }
      ],
      "name": "ERC1967InvalidImplementation",
      "type": "error"
    },
    {
      "inputs": [],
      "name": "ERC1967NonPayable",
      "type": "error"
    },
    {
      "inputs": [],
      "name": "FailedCall",
      "type": "error"
    },
    {
      "inputs": [],
      "name": "InvalidInitialization",
      "type": "error"
    },
    {
      "inputs": [],
      "name": "NotInitializing",
      "type": "error"
    },
    {
      "inputs": [
        {
          "internalType": "address",
          "name": "owner",
          "type": "address"
        }
      ],
      "name": "OwnableInvalidOwner",
      "type": "error"
    },
    {
      "inputs": [
        {
          "internalType": "address",
          "name": "account",
          "type": "address"
        }
      ],
      "name": "OwnableUnauthorizedAccount",
      "type": "error"
    },
    {
      "inputs": [],
      "name": "ReentrancyGuardReentrantCall",
      "type": "error"
    },
    {
      "inputs": [],
      "name": "UUPSUnauthorizedCallContext",
      "type": "error"
    },
    {
      "inputs": [
        {
          "internalType": "bytes32",
          "name": "slot",
          "type": "bytes32"
        }
      ],
      "name": "UUPSUnsupportedProxiableUUID",
      "type": "error"
    },
    {
      "anonymous": false,
      "inputs": [
        {
          "indexed": false,
          "internalType": "uint64",
          "name": "version",
          "type": "uint64"
        }
      ],
      "name": "Initialized",
      "type": "event"
    },
    {
      "anonymous": false,
      "inputs": [
        {
          "indexed": true,
          "internalType": "address",
          "name": "nft",
          "type": "address"
        },
        {
          "indexed": true,
          "internalType": "uint256",
          "name": "tokenId",
          "type": "uint256"
        },
        {
          "indexed": false,
          "internalType": "uint256",
          "name": "lock",
          "type": "uint256"
        },
        {
          "indexed": false,
          "internalType": "uint256",
          "name": "price",
          "type": "uint256"
        },
        {
          "indexed": false,
          "internalType": "address",
          "name": "seller",
          "type": "address"
        }
      ],
      "name": "Lock",
      "type": "event"
    },
    {
      "anonymous": false,
      "inputs": [
        {
          "indexed": true,
          "internalType": "address",
          "name": "previousOwner",
          "type": "address"
        },
        {
          "indexed": true,
          "internalType": "address",
          "name": "newOwner",
          "type": "address"
        }
      ],
      "name": "OwnershipTransferred",
      "type": "event"
    },
    {
      "anonymous": false,
      "inputs": [
        {
          "indexed": true,
          "internalType": "address",
          "name": "nft",
          "type": "address"
        },
        {
          "indexed": true,
          "internalType": "uint256",
          "name": "tokenId",
          "type": "uint256"
        },
        {
          "indexed": false,
          "internalType": "address",
          "name": "seller",
          "type": "address"
        },
        {
          "indexed": false,
          "internalType": "uint256",
          "name": "price",
          "type": "uint256"
        },
        {
          "indexed": false,
          "internalType": "uint256",
          "name": "flag",
          "type": "uint256"
        }
      ],
      "name": "Packed",
      "type": "event"
    },
    {
      "anonymous": false,
      "inputs": [
        {
          "indexed": true,
          "internalType": "address",
          "name": "nft",
          "type": "address"
        },
        {
          "indexed": true,
          "internalType": "uint256",
          "name": "tokenId",
          "type": "uint256"
        },
        {
          "indexed": false,
          "internalType": "address",
          "name": "buyer",
          "type": "address"
        },
        {
          "indexed": false,
          "internalType": "uint256",
          "name": "price",
          "type": "uint256"
        },
        {
          "indexed": false,
          "internalType": "uint256",
          "name": "flag",
          "type": "uint256"
        }
      ],
      "name": "Purchased",
      "type": "event"
    },
    {
      "anonymous": false,
      "inputs": [
        {
          "indexed": true,
          "internalType": "address",
          "name": "nft",
          "type": "address"
        },
        {
          "indexed": true,
          "internalType": "uint256",
          "name": "tokenId",
          "type": "uint256"
        },
        {
          "indexed": false,
          "internalType": "uint256",
          "name": "flag",
          "type": "uint256"
        }
      ],
      "name": "SetFlag",
      "type": "event"
    },
    {
      "anonymous": false,
      "inputs": [
        {
          "indexed": true,
          "internalType": "address",
          "name": "nft",
          "type": "address"
        },
        {
          "indexed": true,
          "internalType": "uint256",
          "name": "tokenId",
          "type": "uint256"
        }
      ],
      "name": "Unpacked",
      "type": "event"
    },
    {
      "anonymous": false,
      "inputs": [
        {
          "indexed": true,
          "internalType": "address",
          "name": "implementation",
          "type": "address"
        }
      ],
      "name": "Upgraded",
      "type": "event"
    },
    {
      "inputs": [],
      "name": "UPGRADE_INTERFACE_VERSION",
      "outputs": [
        {
          "internalType": "string",
          "name": "",
          "type": "string"
        }
      ],
      "stateMutability": "view",
      "type": "function"
    },
    {
      "inputs": [
        {
          "internalType": "address",
          "name": "nft",
          "type": "address"
        },
        {
          "internalType": "uint256",
          "name": "tokenId",
          "type": "uint256"
        },
        {
          "internalType": "uint256",
          "name": "price",
          "type": "uint256"
        }
      ],
      "name": "adapterRecv",
      "outputs": [],
      "stateMutability": "nonpayable",
      "type": "function"
    },
    {
      "inputs": [
        {
          "internalType": "address",
          "name": "nft",
          "type": "address"
        },
        {
          "internalType": "uint256",
          "name": "tokenId",
          "type": "uint256"
        }
      ],
      "name": "adapterSend",
      "outputs": [],
      "stateMutability": "nonpayable",
      "type": "function"
    },
    {
      "inputs": [
        {
          "internalType": "address",
          "name": "nft",
          "type": "address"
        },
        {
          "internalType": "uint256",
          "name": "tokenId",
          "type": "uint256"
        }
      ],
      "name": "buyNFT",
      "outputs": [],
      "stateMutability": "payable",
      "type": "function"
    },
    {
      "inputs": [
        {
          "internalType": "address",
          "name": "initialOwner",
          "type": "address"
        }
      ],
      "name": "init",
      "outputs": [],
      "stateMutability": "nonpayable",
      "type": "function"
    },
    {
      "inputs": [],
      "name": "owner",
      "outputs": [
        {
          "internalType": "address",
          "name": "",
          "type": "address"
        }
      ],
      "stateMutability": "view",
      "type": "function"
    },
    {
      "inputs": [],
      "name": "proxiableUUID",
      "outputs": [
        {
          "internalType": "bytes32",
          "name": "",
          "type": "bytes32"
        }
      ],
      "stateMutability": "view",
      "type": "function"
    },
    {
      "inputs": [],
      "name": "renounceOwnership",
      "outputs": [],
      "stateMutability": "nonpayable",
      "type": "function"
    },
    {
      "inputs": [
        {
          "internalType": "address",
          "name": "nft",
          "type": "address"
        },
        {
          "internalType": "uint256",
          "name": "tokenId",
          "type": "uint256"
        },
        {
          "internalType": "uint256",
          "name": "flag",
          "type": "uint256"
        }
      ],
      "name": "setFlag",
      "outputs": [],
      "stateMutability": "nonpayable",
      "type": "function"
    },
    {
      "inputs": [
        {
          "internalType": "address",
          "name": "nft",
          "type": "address"
        },
        {
          "internalType": "uint256",
          "name": "tokenId",
          "type": "uint256"
        },
        {
          "internalType": "uint256",
          "name": "price",
          "type": "uint256"
        }
      ],
      "name": "setPrice",
      "outputs": [],
      "stateMutability": "nonpayable",
      "type": "function"
    },
    {
      "inputs": [
        {
          "internalType": "address",
          "name": "nft",
          "type": "address"
        },
        {
          "internalType": "uint256",
          "name": "tokenId",
          "type": "uint256"
        },
        {
          "internalType": "uint256",
          "name": "price",
          "type": "uint256"
        }
      ],
      "name": "takePack",
      "outputs": [],
      "stateMutability": "nonpayable",
      "type": "function"
    },
    {
      "inputs": [
        {
          "internalType": "address",
          "name": "newOwner",
          "type": "address"
        }
      ],
      "name": "transferOwnership",
      "outputs": [],
      "stateMutability": "nonpayable",
      "type": "function"
    },
    {
      "inputs": [
        {
          "internalType": "address",
          "name": "nft",
          "type": "address"
        },
        {
          "internalType": "uint256",
          "name": "tokenId",
          "type": "uint256"
        }
      ],
      "name": "unPack",
      "outputs": [],
      "stateMutability": "nonpayable",
      "type": "function"
    },
    {
      "inputs": [
        {
          "internalType": "address",
          "name": "newImplementation",
          "type": "address"
        },
        {
          "internalType": "bytes",
          "name": "data",
          "type": "bytes"
        }
      ],
      "name": "upgradeToAndCall",
      "outputs": [],
      "stateMutability": "payable",
      "type": "function"
    }
  ],
  "bytecode": "0x60a06040523073ffffffffffffffffffffffffffffffffffffffff1660809073ffffffffffffffffffffffffffffffffffffffff16815250348015604257600080fd5b50608051612b2d61006c600039600081816114040152818161145901526116140152612b2d6000f3fe6080604052600436106100dd5760003560e01c806397cb27d61161007f578063ad3e3c3111610059578063ad3e3c3114610256578063c4159e461461027f578063d0c0f7f1146102a8578063f2fde38b146102d1576100dd565b806397cb27d6146101e6578063a82ba76f1461020f578063ad3cb1cc1461022b576100dd565b806352d1902d116100bb57806352d1902d14610150578063715018a61461017b5780637bcad744146101925780638da5cb5b146101bb576100dd565b806319ab453c146100e25780633011e16a1461010b5780634f1ef28614610134575b600080fd5b3480156100ee57600080fd5b5061010960048036038101906101049190612074565b6102fa565b005b34801561011757600080fd5b50610132600480360381019061012d91906120d7565b610499565b005b61014e60048036038101906101499190612270565b610637565b005b34801561015c57600080fd5b50610165610656565b60405161017291906122e5565b60405180910390f35b34801561018757600080fd5b50610190610689565b005b34801561019e57600080fd5b506101b960048036038101906101b491906120d7565b61069d565b005b3480156101c757600080fd5b506101d0610830565b6040516101dd919061230f565b60405180910390f35b3480156101f257600080fd5b5061020d6004803603810190610208919061232a565b610868565b005b6102296004803603810190610224919061232a565b6109d4565b005b34801561023757600080fd5b50610240610e43565b60405161024d91906123e9565b60405180910390f35b34801561026257600080fd5b5061027d600480360381019061027891906120d7565b610e7c565b005b34801561028b57600080fd5b506102a660048036038101906102a191906120d7565b610fc1565b005b3480156102b457600080fd5b506102cf60048036038101906102ca919061232a565b6111ff565b005b3480156102dd57600080fd5b506102f860048036038101906102f39190612074565b611338565b005b60006103046113be565b905060008160000160089054906101000a900460ff1615905060008260000160009054906101000a900467ffffffffffffffff1690506000808267ffffffffffffffff161480156103525750825b9050600060018367ffffffffffffffff16148015610387575060003073ffffffffffffffffffffffffffffffffffffffff163b145b905081158015610395575080155b156103cc576040517ff92ee8a900000000000000000000000000000000000000000000000000000000815260040160405180910390fd5b60018560000160006101000a81548167ffffffffffffffff021916908367ffffffffffffffff160217905550831561041c5760018560000160086101000a81548160ff0219169083151502179055505b6104246113d2565b61042c6113e4565b610435866113ee565b83156104915760008560000160086101000a81548160ff0219169083151502179055507fc7f505b2f371ae2175ee4913f4499e1f2633a7b5936321eed1cdaeb6115181d260016040516104889190612464565b60405180910390a15b505050505050565b828260008290503373ffffffffffffffffffffffffffffffffffffffff168173ffffffffffffffffffffffffffffffffffffffff16636352211e846040518263ffffffff1660e01b81526004016104f0919061248e565b602060405180830381865afa15801561050d573d6000803e3d6000fd5b505050506040513d601f19601f8201168201806040525081019061053191906124be565b73ffffffffffffffffffffffffffffffffffffffff1614610587576040517f08c379a000000000000000000000000000000000000000000000000000000000815260040161057e90612537565b60405180910390fd5b836000808873ffffffffffffffffffffffffffffffffffffffff1673ffffffffffffffffffffffffffffffffffffffff168152602001908152602001600020600087815260200190815260200160002081905550848673ffffffffffffffffffffffffffffffffffffffff167f9ed5209c6fe86e61b83ed97b339992c9d9d408197db2791facb75970f8459bac3387600260405161062793929190612592565b60405180910390a3505050505050565b61063f611402565b610648826114e8565b61065282826114f3565b5050565b6000610660611612565b7f360894a13ba1a3210667c828492db98dca3e2076cc3735a920a3ca505d382bbc60001b905090565b610691611699565b61069b6000611720565b565b828260008290503373ffffffffffffffffffffffffffffffffffffffff168173ffffffffffffffffffffffffffffffffffffffff16636352211e846040518263ffffffff1660e01b81526004016106f4919061248e565b602060405180830381865afa158015610711573d6000803e3d6000fd5b505050506040513d601f19601f8201168201806040525081019061073591906124be565b73ffffffffffffffffffffffffffffffffffffffff161461078b576040517f08c379a000000000000000000000000000000000000000000000000000000000815260040161078290612537565b60405180910390fd5b600084148061079a5750600184145b6107d9576040517f08c379a00000000000000000000000000000000000000000000000000000000081526004016107d090612615565b60405180910390fd5b848673ffffffffffffffffffffffffffffffffffffffff167fb5fbb51fb20d14e500434b8d5c577373b5b2cb4b2fb02f08043d529f5386aa1e86604051610820919061248e565b60405180910390a3505050505050565b60008061083b6117f7565b90508060000160009054906101000a900473ffffffffffffffffffffffffffffffffffffffff1691505090565b6108a86040518060400160405280601f81526020017f6164617074657253656e64206e66743a20257320746f6b656e49643a20256400815250838361181f565b600082905060008173ffffffffffffffffffffffffffffffffffffffff16636352211e846040518263ffffffff1660e01b81526004016108e8919061248e565b602060405180830381865afa158015610905573d6000803e3d6000fd5b505050506040513d601f19601f8201168201806040525081019061092991906124be565b9050828473ffffffffffffffffffffffffffffffffffffffff167f39d60c234f0766f6ba0a913031909662325014ebaea4139b8d5eb9131700e81f60016000808973ffffffffffffffffffffffffffffffffffffffff1673ffffffffffffffffffffffffffffffffffffffff168152602001908152602001600020600088815260200190815260200160002054856040516109c693929190612666565b60405180910390a350505050565b6109dc6118be565b60008290503073ffffffffffffffffffffffffffffffffffffffff168173ffffffffffffffffffffffffffffffffffffffff1663081812fc846040518263ffffffff1660e01b8152600401610a31919061248e565b602060405180830381865afa158015610a4e573d6000803e3d6000fd5b505050506040513d601f19601f82011682018060405250810190610a7291906124be565b73ffffffffffffffffffffffffffffffffffffffff1614610ac8576040517f08c379a0000000000000000000000000000000000000000000000000000000008152600401610abf906126e9565b60405180910390fd5b60008060008573ffffffffffffffffffffffffffffffffffffffff1673ffffffffffffffffffffffffffffffffffffffff16815260200190815260200160002060008481526020019081526020016000205411610b5a576040517f08c379a0000000000000000000000000000000000000000000000000000000008152600401610b5190612755565b60405180910390fd5b6000808473ffffffffffffffffffffffffffffffffffffffff1673ffffffffffffffffffffffffffffffffffffffff1681526020019081526020016000206000838152602001908152602001600020543414610beb576040517f08c379a0000000000000000000000000000000000000000000000000000000008152600401610be2906127c1565b60405180910390fd5b8073ffffffffffffffffffffffffffffffffffffffff16636352211e836040518263ffffffff1660e01b8152600401610c24919061248e565b602060405180830381865afa158015610c41573d6000803e3d6000fd5b505050506040513d601f19601f82011682018060405250810190610c6591906124be565b73ffffffffffffffffffffffffffffffffffffffff166108fc349081150290604051600060405180830381858888f19350505050158015610caa573d6000803e3d6000fd5b508073ffffffffffffffffffffffffffffffffffffffff166342842e0e8273ffffffffffffffffffffffffffffffffffffffff16636352211e856040518263ffffffff1660e01b8152600401610d00919061248e565b602060405180830381865afa158015610d1d573d6000803e3d6000fd5b505050506040513d601f19601f82011682018060405250810190610d4191906124be565b33856040518463ffffffff1660e01b8152600401610d61939291906127e1565b600060405180830381600087803b158015610d7b57600080fd5b505af1158015610d8f573d6000803e3d6000fd5b50505050818373ffffffffffffffffffffffffffffffffffffffff167f9ed5209c6fe86e61b83ed97b339992c9d9d408197db2791facb75970f8459bac336000808873ffffffffffffffffffffffffffffffffffffffff1673ffffffffffffffffffffffffffffffffffffffff1681526020019081526020016000206000878152602001908152602001600020546000604051610e2e93929190612853565b60405180910390a350610e3f611915565b5050565b6040518060400160405280600581526020017f352e302e3000000000000000000000000000000000000000000000000000000081525081565b828260008290503373ffffffffffffffffffffffffffffffffffffffff168173ffffffffffffffffffffffffffffffffffffffff16636352211e846040518263ffffffff1660e01b8152600401610ed3919061248e565b602060405180830381865afa158015610ef0573d6000803e3d6000fd5b505050506040513d601f19601f82011682018060405250810190610f1491906124be565b73ffffffffffffffffffffffffffffffffffffffff1614610f6a576040517f08c379a0000000000000000000000000000000000000000000000000000000008152600401610f6190612537565b60405180910390fd5b60008411610fad576040517f08c379a0000000000000000000000000000000000000000000000000000000008152600401610fa4906128d6565b60405180910390fd5b610fb98686863361192e565b505050505050565b610fe56040518060600160405280602a8152602001612ace602a91398484846119dc565b600083905060008173ffffffffffffffffffffffffffffffffffffffff16636352211e856040518263ffffffff1660e01b8152600401611025919061248e565b602060405180830381865afa158015611042573d6000803e3d6000fd5b505050506040513d601f19601f8201168201806040525081019061106691906124be565b905060008060008773ffffffffffffffffffffffffffffffffffffffff1673ffffffffffffffffffffffffffffffffffffffff16815260200190815260200160002060008681526020019081526020016000205411156111ac576110ff6040518060400160405280601e81526020017f6d61726b65743a202573206973206578697374204c6f636b206576656e74000081525085611a7e565b826000808773ffffffffffffffffffffffffffffffffffffffff1673ffffffffffffffffffffffffffffffffffffffff168152602001908152602001600020600086815260200190815260200160002081905550838573ffffffffffffffffffffffffffffffffffffffff167f39d60c234f0766f6ba0a913031909662325014ebaea4139b8d5eb9131700e81f6000868560405161119f939291906128f6565b60405180910390a36111f8565b6111eb6040518060400160405280601b81526020017f6d61726b65743a202573206973206e6577206f6e65205f7061636b000000000081525085611a7e565b6111f78585858461192e565b5b5050505050565b818160008290503373ffffffffffffffffffffffffffffffffffffffff168173ffffffffffffffffffffffffffffffffffffffff16636352211e846040518263ffffffff1660e01b8152600401611256919061248e565b602060405180830381865afa158015611273573d6000803e3d6000fd5b505050506040513d601f19601f8201168201806040525081019061129791906124be565b73ffffffffffffffffffffffffffffffffffffffff16146112ed576040517f08c379a00000000000000000000000000000000000000000000000000000000081526004016112e490612537565b60405180910390fd5b838573ffffffffffffffffffffffffffffffffffffffff167ff158c4f69c397e48fd0630abb0e822e62627ca893444224ca0eadf9eff3aeaa260405160405180910390a35050505050565b611340611699565b600073ffffffffffffffffffffffffffffffffffffffff168173ffffffffffffffffffffffffffffffffffffffff16036113b25760006040517f1e4fbdf70000000000000000000000000000000000000000000000000000000081526004016113a9919061230f565b60405180910390fd5b6113bb81611720565b50565b6000806113c9611b1a565b90508091505090565b6113da611b45565b6113e2611b85565b565b6113ec611b45565b565b6113f6611b45565b6113ff81611ba6565b50565b7f000000000000000000000000000000000000000000000000000000000000000073ffffffffffffffffffffffffffffffffffffffff163073ffffffffffffffffffffffffffffffffffffffff1614806114af57507f000000000000000000000000000000000000000000000000000000000000000073ffffffffffffffffffffffffffffffffffffffff16611496611c2c565b73ffffffffffffffffffffffffffffffffffffffff1614155b156114e6576040517fe07c8dba00000000000000000000000000000000000000000000000000000000815260040160405180910390fd5b565b6114f0611699565b50565b8173ffffffffffffffffffffffffffffffffffffffff166352d1902d6040518163ffffffff1660e01b8152600401602060405180830381865afa92505050801561155b57506040513d601f19601f820116820180604052508101906115589190612959565b60015b61159c57816040517f4c9c8ce3000000000000000000000000000000000000000000000000000000008152600401611593919061230f565b60405180910390fd5b7f360894a13ba1a3210667c828492db98dca3e2076cc3735a920a3ca505d382bbc60001b811461160357806040517faa1d49a40000000000000000000000000000000000000000000000000000000081526004016115fa91906122e5565b60405180910390fd5b61160d8383611c83565b505050565b7f000000000000000000000000000000000000000000000000000000000000000073ffffffffffffffffffffffffffffffffffffffff163073ffffffffffffffffffffffffffffffffffffffff1614611697576040517fe07c8dba00000000000000000000000000000000000000000000000000000000815260040160405180910390fd5b565b6116a1611cf6565b73ffffffffffffffffffffffffffffffffffffffff166116bf610830565b73ffffffffffffffffffffffffffffffffffffffff161461171e576116e2611cf6565b6040517f118cdaa7000000000000000000000000000000000000000000000000000000008152600401611715919061230f565b60405180910390fd5b565b600061172a6117f7565b905060008160000160009054906101000a900473ffffffffffffffffffffffffffffffffffffffff169050828260000160006101000a81548173ffffffffffffffffffffffffffffffffffffffff021916908373ffffffffffffffffffffffffffffffffffffffff1602179055508273ffffffffffffffffffffffffffffffffffffffff168173ffffffffffffffffffffffffffffffffffffffff167f8be0079c531659141344cd1fd0a4f28419497f9722a3daafe3b4186f6b6457e060405160405180910390a3505050565b60007f9016d09d72d40fdae2fd8ceac6b6234c7706214fd39c1cd1e609a0528c199300905090565b6118b983838360405160240161183793929190612986565b6040516020818303038152906040527f0d26b925000000000000000000000000000000000000000000000000000000007bffffffffffffffffffffffffffffffffffffffffffffffffffffffff19166020820180517bffffffffffffffffffffffffffffffffffffffffffffffffffffffff8381831617835250505050611cfe565b505050565b60006118c8611d18565b90506002816000015403611908576040517f3ee5aeb500000000000000000000000000000000000000000000000000000000815260040160405180910390fd5b6002816000018190555050565b600061191f611d18565b90506001816000018190555050565b816000808673ffffffffffffffffffffffffffffffffffffffff1673ffffffffffffffffffffffffffffffffffffffff168152602001908152602001600020600085815260200190815260200160002081905550828473ffffffffffffffffffffffffffffffffffffffff167f4522ac5e17505a5077136a0a1af3eeff89b4cf251211b73f48c55af50bafa1ac838560006040516119ce93929190612853565b60405180910390a350505050565b611a78848484846040516024016119f694939291906129c4565b6040516020818303038152906040527ff8f51b1e000000000000000000000000000000000000000000000000000000007bffffffffffffffffffffffffffffffffffffffffffffffffffffffff19166020820180517bffffffffffffffffffffffffffffffffffffffffffffffffffffffff8381831617835250505050611cfe565b50505050565b611b168282604051602401611a94929190612a10565b6040516020818303038152906040527fb60e72cc000000000000000000000000000000000000000000000000000000007bffffffffffffffffffffffffffffffffffffffffffffffffffffffff19166020820180517bffffffffffffffffffffffffffffffffffffffffffffffffffffffff8381831617835250505050611cfe565b5050565b60007ff0c57e16840df040f15088dc2f81fe391c3923bec73e23a9662efc9c229c6a0060001b905090565b611b4d611d40565b611b83576040517fd7e6bcf800000000000000000000000000000000000000000000000000000000815260040160405180910390fd5b565b611b8d611b45565b6000611b97611d18565b90506001816000018190555050565b611bae611b45565b600073ffffffffffffffffffffffffffffffffffffffff168173ffffffffffffffffffffffffffffffffffffffff1603611c205760006040517f1e4fbdf7000000000000000000000000000000000000000000000000000000008152600401611c17919061230f565b60405180910390fd5b611c2981611720565b50565b6000611c5a7f360894a13ba1a3210667c828492db98dca3e2076cc3735a920a3ca505d382bbc60001b611d60565b60000160009054906101000a900473ffffffffffffffffffffffffffffffffffffffff16905090565b611c8c82611d6a565b8173ffffffffffffffffffffffffffffffffffffffff167fbc7cd75a20ee27fd9adebab32041f755214dbc6bffa90cc0225b39da2e5c2d3b60405160405180910390a2600081511115611ce957611ce38282611e37565b50611cf2565b611cf1611ebb565b5b5050565b600033905090565b611d1581611d0d611ef8611f19565b63ffffffff16565b50565b60007f9b779b17422d0df92223018b32b4d1fa46e071723d6817e2486d003becc55f00905090565b6000611d4a6113be565b60000160089054906101000a900460ff16905090565b6000819050919050565b60008173ffffffffffffffffffffffffffffffffffffffff163b03611dc657806040517f4c9c8ce3000000000000000000000000000000000000000000000000000000008152600401611dbd919061230f565b60405180910390fd5b80611df37f360894a13ba1a3210667c828492db98dca3e2076cc3735a920a3ca505d382bbc60001b611d60565b60000160006101000a81548173ffffffffffffffffffffffffffffffffffffffff021916908373ffffffffffffffffffffffffffffffffffffffff16021790555050565b60606000808473ffffffffffffffffffffffffffffffffffffffff1684604051611e619190612a87565b600060405180830381855af49150503d8060008114611e9c576040519150601f19603f3d011682016040523d82523d6000602084013e611ea1565b606091505b5091509150611eb1858383611f24565b9250505092915050565b6000341115611ef6576040517fb398979f00000000000000000000000000000000000000000000000000000000815260040160405180910390fd5b565b60006a636f6e736f6c652e6c6f679050600080835160208501845afa505050565b611ff8819050919050565b606082611f3957611f3482611fb3565b611fab565b60008251148015611f61575060008473ffffffffffffffffffffffffffffffffffffffff163b145b15611fa357836040517f9996b315000000000000000000000000000000000000000000000000000000008152600401611f9a919061230f565b60405180910390fd5b819050611fac565b5b9392505050565b600081511115611fc65780518082602001fd5b6040517fd6bda27500000000000000000000000000000000000000000000000000000000815260040160405180910390fd5b612000612a9e565b565b6000604051905090565b600080fd5b600080fd5b600073ffffffffffffffffffffffffffffffffffffffff82169050919050565b600061204182612016565b9050919050565b61205181612036565b811461205c57600080fd5b50565b60008135905061206e81612048565b92915050565b60006020828403121561208a5761208961200c565b5b60006120988482850161205f565b91505092915050565b6000819050919050565b6120b4816120a1565b81146120bf57600080fd5b50565b6000813590506120d1816120ab565b92915050565b6000806000606084860312156120f0576120ef61200c565b5b60006120fe8682870161205f565b935050602061210f868287016120c2565b9250506040612120868287016120c2565b9150509250925092565b600080fd5b600080fd5b6000601f19601f8301169050919050565b7f4e487b7100000000000000000000000000000000000000000000000000000000600052604160045260246000fd5b61217d82612134565b810181811067ffffffffffffffff8211171561219c5761219b612145565b5b80604052505050565b60006121af612002565b90506121bb8282612174565b919050565b600067ffffffffffffffff8211156121db576121da612145565b5b6121e482612134565b9050602081019050919050565b82818337600083830152505050565b600061221361220e846121c0565b6121a5565b90508281526020810184848401111561222f5761222e61212f565b5b61223a8482856121f1565b509392505050565b600082601f8301126122575761225661212a565b5b8135612267848260208601612200565b91505092915050565b600080604083850312156122875761228661200c565b5b60006122958582860161205f565b925050602083013567ffffffffffffffff8111156122b6576122b5612011565b5b6122c285828601612242565b9150509250929050565b6000819050919050565b6122df816122cc565b82525050565b60006020820190506122fa60008301846122d6565b92915050565b61230981612036565b82525050565b60006020820190506123246000830184612300565b92915050565b600080604083850312156123415761234061200c565b5b600061234f8582860161205f565b9250506020612360858286016120c2565b9150509250929050565b600081519050919050565b600082825260208201905092915050565b60005b838110156123a4578082015181840152602081019050612389565b60008484015250505050565b60006123bb8261236a565b6123c58185612375565b93506123d5818560208601612386565b6123de81612134565b840191505092915050565b6000602082019050818103600083015261240381846123b0565b905092915050565b6000819050919050565b600067ffffffffffffffff82169050919050565b6000819050919050565b600061244e6124496124448461240b565b612429565b612415565b9050919050565b61245e81612433565b82525050565b60006020820190506124796000830184612455565b92915050565b612488816120a1565b82525050565b60006020820190506124a3600083018461247f565b92915050565b6000815190506124b881612048565b92915050565b6000602082840312156124d4576124d361200c565b5b60006124e2848285016124a9565b91505092915050565b7f4e6f7420746865206f776e657200000000000000000000000000000000000000600082015250565b6000612521600d83612375565b915061252c826124eb565b602082019050919050565b6000602082019050818103600083015261255081612514565b9050919050565b6000819050919050565b600061257c61257761257284612557565b612429565b6120a1565b9050919050565b61258c81612561565b82525050565b60006060820190506125a76000830186612300565b6125b4602083018561247f565b6125c16040830184612583565b949350505050565b7f666c6167206e656564732031206f722030000000000000000000000000000000600082015250565b60006125ff601183612375565b915061260a826125c9565b602082019050919050565b6000602082019050818103600083015261262e816125f2565b9050919050565b600061265061264b6126468461240b565b612429565b6120a1565b9050919050565b61266081612635565b82525050565b600060608201905061267b6000830186612657565b612688602083018561247f565b6126956040830184612300565b949350505050565b7f4d61726b6574706c616365206e6f7420617070726f7665640000000000000000600082015250565b60006126d3601883612375565b91506126de8261269d565b602082019050919050565b60006020820190508181036000830152612702816126c6565b9050919050565b7f4974656d206e6f74206c69737465640000000000000000000000000000000000600082015250565b600061273f600f83612375565b915061274a82612709565b602082019050919050565b6000602082019050818103600083015261276e81612732565b9050919050565b7f496e636f72726563742070726963650000000000000000000000000000000000600082015250565b60006127ab600f83612375565b91506127b682612775565b602082019050919050565b600060208201905081810360008301526127da8161279e565b9050919050565b60006060820190506127f66000830186612300565b6128036020830185612300565b612810604083018461247f565b949350505050565b6000819050919050565b600061283d61283861283384612818565b612429565b6120a1565b9050919050565b61284d81612822565b82525050565b60006060820190506128686000830186612300565b612875602083018561247f565b6128826040830184612844565b949350505050565b7f5072696365206d757374206265203e2030000000000000000000000000000000600082015250565b60006128c0601183612375565b91506128cb8261288a565b602082019050919050565b600060208201905081810360008301526128ef816128b3565b9050919050565b600060608201905061290b6000830186612844565b612918602083018561247f565b6129256040830184612300565b949350505050565b612936816122cc565b811461294157600080fd5b50565b6000815190506129538161292d565b92915050565b60006020828403121561296f5761296e61200c565b5b600061297d84828501612944565b91505092915050565b600060608201905081810360008301526129a081866123b0565b90506129af6020830185612300565b6129bc604083018461247f565b949350505050565b600060808201905081810360008301526129de81876123b0565b90506129ed6020830186612300565b6129fa604083018561247f565b612a07606083018461247f565b95945050505050565b60006040820190508181036000830152612a2a81856123b0565b9050612a39602083018461247f565b9392505050565b600081519050919050565b600081905092915050565b6000612a6182612a40565b612a6b8185612a4b565b9350612a7b818560208601612386565b80840191505092915050565b6000612a938284612a56565b915081905092915050565b7f4e487b7100000000000000000000000000000000000000000000000000000000600052605160045260246000fdfe6164617074657252656376206e66743a20257320746f6b656e49643a2025642070726963653a20256420a2646970667358221220e1843cfdf79968e8a3c4a93fd0a01e189787146885f8b8369f9e16425b29c11a64736f6c634300081c0033",
  "linkReferences": {},
  "deployedLinkReferences": {}
}