{
  "_format": "hh-sol-artifact-1",
  "contractName": "Marketplace",
  "sourceName": "contracts/marketplace.sol",
  "abi": [
    {
      "inputs": [
        {
          "internalType": "address",
          "name": "target",
          "type": "address"
        }
      ],
      "name": "AddressEmptyCode",
      "type": "error"
    },
    {
      "inputs": [
        {
          "internalType": "address",
          "name": "implementation",
          "type": "address"
        }
      ],
      "name": "ERC1967InvalidImplementation",
      "type": "error"
    },
    {
      "inputs": [],
      "name": "ERC1967NonPayable",
      "type": "error"
    },
    {
      "inputs": [],
      "name": "FailedCall",
      "type": "error"
    },
    {
      "inputs": [],
      "name": "InvalidInitialization",
      "type": "error"
    },
    {
      "inputs": [],
      "name": "NotInitializing",
      "type": "error"
    },
    {
      "inputs": [
        {
          "internalType": "address",
          "name": "owner",
          "type": "address"
        }
      ],
      "name": "OwnableInvalidOwner",
      "type": "error"
    },
    {
      "inputs": [
        {
          "internalType": "address",
          "name": "account",
          "type": "address"
        }
      ],
      "name": "OwnableUnauthorizedAccount",
      "type": "error"
    },
    {
      "inputs": [],
      "name": "ReentrancyGuardReentrantCall",
      "type": "error"
    },
    {
      "inputs": [],
      "name": "UUPSUnauthorizedCallContext",
      "type": "error"
    },
    {
      "inputs": [
        {
          "internalType": "bytes32",
          "name": "slot",
          "type": "bytes32"
        }
      ],
      "name": "UUPSUnsupportedProxiableUUID",
      "type": "error"
    },
    {
      "anonymous": false,
      "inputs": [
        {
          "indexed": false,
          "internalType": "uint64",
          "name": "version",
          "type": "uint64"
        }
      ],
      "name": "Initialized",
      "type": "event"
    },
    {
      "anonymous": false,
      "inputs": [
        {
          "indexed": true,
          "internalType": "address",
          "name": "nft",
          "type": "address"
        },
        {
          "indexed": true,
          "internalType": "uint256",
          "name": "tokenId",
          "type": "uint256"
        },
        {
          "indexed": false,
          "internalType": "uint256",
          "name": "lock",
          "type": "uint256"
        }
      ],
      "name": "Lock",
      "type": "event"
    },
    {
      "anonymous": false,
      "inputs": [
        {
          "indexed": true,
          "internalType": "address",
          "name": "previousOwner",
          "type": "address"
        },
        {
          "indexed": true,
          "internalType": "address",
          "name": "newOwner",
          "type": "address"
        }
      ],
      "name": "OwnershipTransferred",
      "type": "event"
    },
    {
      "anonymous": false,
      "inputs": [
        {
          "indexed": true,
          "internalType": "address",
          "name": "nft",
          "type": "address"
        },
        {
          "indexed": true,
          "internalType": "uint256",
          "name": "tokenId",
          "type": "uint256"
        },
        {
          "indexed": false,
          "internalType": "address",
          "name": "seller",
          "type": "address"
        },
        {
          "indexed": false,
          "internalType": "uint256",
          "name": "price",
          "type": "uint256"
        },
        {
          "indexed": false,
          "internalType": "uint256",
          "name": "flag",
          "type": "uint256"
        }
      ],
      "name": "Packed",
      "type": "event"
    },
    {
      "anonymous": false,
      "inputs": [
        {
          "indexed": true,
          "internalType": "address",
          "name": "nft",
          "type": "address"
        },
        {
          "indexed": true,
          "internalType": "uint256",
          "name": "tokenId",
          "type": "uint256"
        },
        {
          "indexed": false,
          "internalType": "address",
          "name": "buyer",
          "type": "address"
        },
        {
          "indexed": false,
          "internalType": "uint256",
          "name": "price",
          "type": "uint256"
        }
      ],
      "name": "Purchased",
      "type": "event"
    },
    {
      "anonymous": false,
      "inputs": [
        {
          "indexed": true,
          "internalType": "address",
          "name": "nft",
          "type": "address"
        },
        {
          "indexed": true,
          "internalType": "uint256",
          "name": "tokenId",
          "type": "uint256"
        },
        {
          "indexed": false,
          "internalType": "uint256",
          "name": "flag",
          "type": "uint256"
        }
      ],
      "name": "SetFlag",
      "type": "event"
    },
    {
      "anonymous": false,
      "inputs": [
        {
          "indexed": true,
          "internalType": "address",
          "name": "nft",
          "type": "address"
        },
        {
          "indexed": true,
          "internalType": "uint256",
          "name": "tokenId",
          "type": "uint256"
        }
      ],
      "name": "Unpacked",
      "type": "event"
    },
    {
      "anonymous": false,
      "inputs": [
        {
          "indexed": true,
          "internalType": "address",
          "name": "implementation",
          "type": "address"
        }
      ],
      "name": "Upgraded",
      "type": "event"
    },
    {
      "inputs": [],
      "name": "UPGRADE_INTERFACE_VERSION",
      "outputs": [
        {
          "internalType": "string",
          "name": "",
          "type": "string"
        }
      ],
      "stateMutability": "view",
      "type": "function"
    },
    {
      "inputs": [
        {
          "internalType": "address",
          "name": "nft",
          "type": "address"
        },
        {
          "internalType": "uint256",
          "name": "tokenId",
          "type": "uint256"
        },
        {
          "internalType": "uint256",
          "name": "price",
          "type": "uint256"
        }
      ],
      "name": "adapterRecv",
      "outputs": [],
      "stateMutability": "nonpayable",
      "type": "function"
    },
    {
      "inputs": [
        {
          "internalType": "address",
          "name": "nft",
          "type": "address"
        },
        {
          "internalType": "uint256",
          "name": "tokenId",
          "type": "uint256"
        }
      ],
      "name": "adapterSend",
      "outputs": [],
      "stateMutability": "nonpayable",
      "type": "function"
    },
    {
      "inputs": [
        {
          "internalType": "address",
          "name": "nft",
          "type": "address"
        },
        {
          "internalType": "uint256",
          "name": "tokenId",
          "type": "uint256"
        }
      ],
      "name": "buyNFT",
      "outputs": [],
      "stateMutability": "payable",
      "type": "function"
    },
    {
      "inputs": [
        {
          "internalType": "address",
          "name": "initialOwner",
          "type": "address"
        }
      ],
      "name": "init",
      "outputs": [],
      "stateMutability": "nonpayable",
      "type": "function"
    },
    {
      "inputs": [],
      "name": "owner",
      "outputs": [
        {
          "internalType": "address",
          "name": "",
          "type": "address"
        }
      ],
      "stateMutability": "view",
      "type": "function"
    },
    {
      "inputs": [],
      "name": "proxiableUUID",
      "outputs": [
        {
          "internalType": "bytes32",
          "name": "",
          "type": "bytes32"
        }
      ],
      "stateMutability": "view",
      "type": "function"
    },
    {
      "inputs": [],
      "name": "renounceOwnership",
      "outputs": [],
      "stateMutability": "nonpayable",
      "type": "function"
    },
    {
      "inputs": [
        {
          "internalType": "address",
          "name": "nft",
          "type": "address"
        },
        {
          "internalType": "uint256",
          "name": "tokenId",
          "type": "uint256"
        },
        {
          "internalType": "uint256",
          "name": "flag",
          "type": "uint256"
        }
      ],
      "name": "setFlag",
      "outputs": [],
      "stateMutability": "nonpayable",
      "type": "function"
    },
    {
      "inputs": [
        {
          "internalType": "address",
          "name": "nft",
          "type": "address"
        },
        {
          "internalType": "uint256",
          "name": "tokenId",
          "type": "uint256"
        },
        {
          "internalType": "uint256",
          "name": "price",
          "type": "uint256"
        }
      ],
      "name": "setPrice",
      "outputs": [],
      "stateMutability": "nonpayable",
      "type": "function"
    },
    {
      "inputs": [
        {
          "internalType": "address",
          "name": "nft",
          "type": "address"
        },
        {
          "internalType": "uint256",
          "name": "tokenId",
          "type": "uint256"
        },
        {
          "internalType": "uint256",
          "name": "price",
          "type": "uint256"
        }
      ],
      "name": "takePack",
      "outputs": [],
      "stateMutability": "nonpayable",
      "type": "function"
    },
    {
      "inputs": [
        {
          "internalType": "address",
          "name": "newOwner",
          "type": "address"
        }
      ],
      "name": "transferOwnership",
      "outputs": [],
      "stateMutability": "nonpayable",
      "type": "function"
    },
    {
      "inputs": [
        {
          "internalType": "address",
          "name": "nft",
          "type": "address"
        },
        {
          "internalType": "uint256",
          "name": "tokenId",
          "type": "uint256"
        }
      ],
      "name": "unPack",
      "outputs": [],
      "stateMutability": "nonpayable",
      "type": "function"
    },
    {
      "inputs": [
        {
          "internalType": "address",
          "name": "newImplementation",
          "type": "address"
        },
        {
          "internalType": "bytes",
          "name": "data",
          "type": "bytes"
        }
      ],
      "name": "upgradeToAndCall",
      "outputs": [],
      "stateMutability": "payable",
      "type": "function"
    }
  ],
  "bytecode": "0x60a06040523073ffffffffffffffffffffffffffffffffffffffff1660809073ffffffffffffffffffffffffffffffffffffffff16815250348015604257600080fd5b506080516128ee61006c600039600081816112470152818161129c015261145701526128ee6000f3fe6080604052600436106100dd5760003560e01c806397cb27d61161007f578063ad3e3c3111610059578063ad3e3c3114610256578063c4159e461461027f578063d0c0f7f1146102a8578063f2fde38b146102d1576100dd565b806397cb27d6146101e6578063a82ba76f1461020f578063ad3cb1cc1461022b576100dd565b806352d1902d116100bb57806352d1902d14610150578063715018a61461017b5780637bcad744146101925780638da5cb5b146101bb576100dd565b806319ab453c146100e25780633011e16a1461010b5780634f1ef28614610134575b600080fd5b3480156100ee57600080fd5b5061010960048036038101906101049190611eb6565b6102fa565b005b34801561011757600080fd5b50610132600480360381019061012d9190611f19565b610499565b005b61014e600480360381019061014991906120b2565b610634565b005b34801561015c57600080fd5b50610165610653565b6040516101729190612127565b60405180910390f35b34801561018757600080fd5b50610190610686565b005b34801561019e57600080fd5b506101b960048036038101906101b49190611f19565b61069a565b005b3480156101c757600080fd5b506101d061082d565b6040516101dd9190612151565b60405180910390f35b3480156101f257600080fd5b5061020d6004803603810190610208919061216c565b610865565b005b6102296004803603810190610224919061216c565b6108f9565b005b34801561023757600080fd5b50610240610d65565b60405161024d919061222b565b60405180910390f35b34801561026257600080fd5b5061027d60048036038101906102789190611f19565b610d9e565b005b34801561028b57600080fd5b506102a660048036038101906102a19190611f19565b610ee2565b005b3480156102b457600080fd5b506102cf60048036038101906102ca919061216c565b611042565b005b3480156102dd57600080fd5b506102f860048036038101906102f39190611eb6565b61117b565b005b6000610304611201565b905060008160000160089054906101000a900460ff1615905060008260000160009054906101000a900467ffffffffffffffff1690506000808267ffffffffffffffff161480156103525750825b9050600060018367ffffffffffffffff16148015610387575060003073ffffffffffffffffffffffffffffffffffffffff163b145b905081158015610395575080155b156103cc576040517ff92ee8a900000000000000000000000000000000000000000000000000000000815260040160405180910390fd5b60018560000160006101000a81548167ffffffffffffffff021916908367ffffffffffffffff160217905550831561041c5760018560000160086101000a81548160ff0219169083151502179055505b610424611215565b61042c611227565b61043586611231565b83156104915760008560000160086101000a81548160ff0219169083151502179055507fc7f505b2f371ae2175ee4913f4499e1f2633a7b5936321eed1cdaeb6115181d2600160405161048891906122a6565b60405180910390a15b505050505050565b828260008290503373ffffffffffffffffffffffffffffffffffffffff168173ffffffffffffffffffffffffffffffffffffffff16636352211e846040518263ffffffff1660e01b81526004016104f091906122d0565b602060405180830381865afa15801561050d573d6000803e3d6000fd5b505050506040513d601f19601f820116820180604052508101906105319190612300565b73ffffffffffffffffffffffffffffffffffffffff1614610587576040517f08c379a000000000000000000000000000000000000000000000000000000000815260040161057e90612379565b60405180910390fd5b836000808873ffffffffffffffffffffffffffffffffffffffff1673ffffffffffffffffffffffffffffffffffffffff168152602001908152602001600020600087815260200190815260200160002081905550848673ffffffffffffffffffffffffffffffffffffffff167fbee1a16799859362538b3f5288957d5005243ef2c3c98e5448b2849254f010763387604051610624929190612399565b60405180910390a3505050505050565b61063c611245565b6106458261132b565b61064f8282611336565b5050565b600061065d611455565b7f360894a13ba1a3210667c828492db98dca3e2076cc3735a920a3ca505d382bbc60001b905090565b61068e6114dc565b6106986000611563565b565b828260008290503373ffffffffffffffffffffffffffffffffffffffff168173ffffffffffffffffffffffffffffffffffffffff16636352211e846040518263ffffffff1660e01b81526004016106f191906122d0565b602060405180830381865afa15801561070e573d6000803e3d6000fd5b505050506040513d601f19601f820116820180604052508101906107329190612300565b73ffffffffffffffffffffffffffffffffffffffff1614610788576040517f08c379a000000000000000000000000000000000000000000000000000000000815260040161077f90612379565b60405180910390fd5b60008414806107975750600184145b6107d6576040517f08c379a00000000000000000000000000000000000000000000000000000000081526004016107cd9061240e565b60405180910390fd5b848673ffffffffffffffffffffffffffffffffffffffff167fb5fbb51fb20d14e500434b8d5c577373b5b2cb4b2fb02f08043d529f5386aa1e8660405161081d91906122d0565b60405180910390a3505050505050565b60008061083861163a565b90508060000160009054906101000a900473ffffffffffffffffffffffffffffffffffffffff1691505090565b6108a56040518060400160405280601f81526020017f6164617074657253656e64206e66743a20257320746f6b656e49643a202564008152508383611662565b808273ffffffffffffffffffffffffffffffffffffffff167f49eaf4942f1237055eb4cfa5f31c9dfe50d5b4ade01e021f7de8be2fbbde557b60016040516108ed919061245f565b60405180910390a35050565b610901611701565b60008290503073ffffffffffffffffffffffffffffffffffffffff168173ffffffffffffffffffffffffffffffffffffffff1663081812fc846040518263ffffffff1660e01b815260040161095691906122d0565b602060405180830381865afa158015610973573d6000803e3d6000fd5b505050506040513d601f19601f820116820180604052508101906109979190612300565b73ffffffffffffffffffffffffffffffffffffffff16146109ed576040517f08c379a00000000000000000000000000000000000000000000000000000000081526004016109e4906124c6565b60405180910390fd5b60008060008573ffffffffffffffffffffffffffffffffffffffff1673ffffffffffffffffffffffffffffffffffffffff16815260200190815260200160002060008481526020019081526020016000205411610a7f576040517f08c379a0000000000000000000000000000000000000000000000000000000008152600401610a7690612532565b60405180910390fd5b6000808473ffffffffffffffffffffffffffffffffffffffff1673ffffffffffffffffffffffffffffffffffffffff1681526020019081526020016000206000838152602001908152602001600020543414610b10576040517f08c379a0000000000000000000000000000000000000000000000000000000008152600401610b079061259e565b60405180910390fd5b8073ffffffffffffffffffffffffffffffffffffffff16636352211e836040518263ffffffff1660e01b8152600401610b4991906122d0565b602060405180830381865afa158015610b66573d6000803e3d6000fd5b505050506040513d601f19601f82011682018060405250810190610b8a9190612300565b73ffffffffffffffffffffffffffffffffffffffff166108fc349081150290604051600060405180830381858888f19350505050158015610bcf573d6000803e3d6000fd5b508073ffffffffffffffffffffffffffffffffffffffff166342842e0e8273ffffffffffffffffffffffffffffffffffffffff16636352211e856040518263ffffffff1660e01b8152600401610c2591906122d0565b602060405180830381865afa158015610c42573d6000803e3d6000fd5b505050506040513d601f19601f82011682018060405250810190610c669190612300565b33856040518463ffffffff1660e01b8152600401610c86939291906125be565b600060405180830381600087803b158015610ca057600080fd5b505af1158015610cb4573d6000803e3d6000fd5b50505050818373ffffffffffffffffffffffffffffffffffffffff167fbee1a16799859362538b3f5288957d5005243ef2c3c98e5448b2849254f01076336000808873ffffffffffffffffffffffffffffffffffffffff1673ffffffffffffffffffffffffffffffffffffffff168152602001908152602001600020600087815260200190815260200160002054604051610d50929190612399565b60405180910390a350610d61611758565b5050565b6040518060400160405280600581526020017f352e302e3000000000000000000000000000000000000000000000000000000081525081565b828260008290503373ffffffffffffffffffffffffffffffffffffffff168173ffffffffffffffffffffffffffffffffffffffff16636352211e846040518263ffffffff1660e01b8152600401610df591906122d0565b602060405180830381865afa158015610e12573d6000803e3d6000fd5b505050506040513d601f19601f82011682018060405250810190610e369190612300565b73ffffffffffffffffffffffffffffffffffffffff1614610e8c576040517f08c379a0000000000000000000000000000000000000000000000000000000008152600401610e8390612379565b60405180910390fd5b60008411610ecf576040517f08c379a0000000000000000000000000000000000000000000000000000000008152600401610ec690612641565b60405180910390fd5b610eda868686611771565b505050505050565b610f066040518060600160405280602a815260200161288f602a913984848461181e565b60008060008573ffffffffffffffffffffffffffffffffffffffff1673ffffffffffffffffffffffffffffffffffffffff1681526020019081526020016000206000848152602001908152602001600020541115610ff257610f9d6040518060400160405280601e81526020017f6d61726b65743a202573206973206578697374204c6f636b206576656e740000815250836118c0565b818373ffffffffffffffffffffffffffffffffffffffff167f49eaf4942f1237055eb4cfa5f31c9dfe50d5b4ade01e021f7de8be2fbbde557b6000604051610fe5919061269c565b60405180910390a361103d565b6110316040518060400160405280601b81526020017f6d61726b65743a202573206973206e6577206f6e65205f7061636b0000000000815250836118c0565b61103c838383611771565b5b505050565b818160008290503373ffffffffffffffffffffffffffffffffffffffff168173ffffffffffffffffffffffffffffffffffffffff16636352211e846040518263ffffffff1660e01b815260040161109991906122d0565b602060405180830381865afa1580156110b6573d6000803e3d6000fd5b505050506040513d601f19601f820116820180604052508101906110da9190612300565b73ffffffffffffffffffffffffffffffffffffffff1614611130576040517f08c379a000000000000000000000000000000000000000000000000000000000815260040161112790612379565b60405180910390fd5b838573ffffffffffffffffffffffffffffffffffffffff167ff158c4f69c397e48fd0630abb0e822e62627ca893444224ca0eadf9eff3aeaa260405160405180910390a35050505050565b6111836114dc565b600073ffffffffffffffffffffffffffffffffffffffff168173ffffffffffffffffffffffffffffffffffffffff16036111f55760006040517f1e4fbdf70000000000000000000000000000000000000000000000000000000081526004016111ec9190612151565b60405180910390fd5b6111fe81611563565b50565b60008061120c61195c565b90508091505090565b61121d611987565b6112256119c7565b565b61122f611987565b565b611239611987565b611242816119e8565b50565b7f000000000000000000000000000000000000000000000000000000000000000073ffffffffffffffffffffffffffffffffffffffff163073ffffffffffffffffffffffffffffffffffffffff1614806112f257507f000000000000000000000000000000000000000000000000000000000000000073ffffffffffffffffffffffffffffffffffffffff166112d9611a6e565b73ffffffffffffffffffffffffffffffffffffffff1614155b15611329576040517fe07c8dba00000000000000000000000000000000000000000000000000000000815260040160405180910390fd5b565b6113336114dc565b50565b8173ffffffffffffffffffffffffffffffffffffffff166352d1902d6040518163ffffffff1660e01b8152600401602060405180830381865afa92505050801561139e57506040513d601f19601f8201168201806040525081019061139b91906126e3565b60015b6113df57816040517f4c9c8ce30000000000000000000000000000000000000000000000000000000081526004016113d69190612151565b60405180910390fd5b7f360894a13ba1a3210667c828492db98dca3e2076cc3735a920a3ca505d382bbc60001b811461144657806040517faa1d49a400000000000000000000000000000000000000000000000000000000815260040161143d9190612127565b60405180910390fd5b6114508383611ac5565b505050565b7f000000000000000000000000000000000000000000000000000000000000000073ffffffffffffffffffffffffffffffffffffffff163073ffffffffffffffffffffffffffffffffffffffff16146114da576040517fe07c8dba00000000000000000000000000000000000000000000000000000000815260040160405180910390fd5b565b6114e4611b38565b73ffffffffffffffffffffffffffffffffffffffff1661150261082d565b73ffffffffffffffffffffffffffffffffffffffff161461156157611525611b38565b6040517f118cdaa70000000000000000000000000000000000000000000000000000000081526004016115589190612151565b60405180910390fd5b565b600061156d61163a565b905060008160000160009054906101000a900473ffffffffffffffffffffffffffffffffffffffff169050828260000160006101000a81548173ffffffffffffffffffffffffffffffffffffffff021916908373ffffffffffffffffffffffffffffffffffffffff1602179055508273ffffffffffffffffffffffffffffffffffffffff168173ffffffffffffffffffffffffffffffffffffffff167f8be0079c531659141344cd1fd0a4f28419497f9722a3daafe3b4186f6b6457e060405160405180910390a3505050565b60007f9016d09d72d40fdae2fd8ceac6b6234c7706214fd39c1cd1e609a0528c199300905090565b6116fc83838360405160240161167a93929190612710565b6040516020818303038152906040527f0d26b925000000000000000000000000000000000000000000000000000000007bffffffffffffffffffffffffffffffffffffffffffffffffffffffff19166020820180517bffffffffffffffffffffffffffffffffffffffffffffffffffffffff8381831617835250505050611b40565b505050565b600061170b611b5a565b9050600281600001540361174b576040517f3ee5aeb500000000000000000000000000000000000000000000000000000000815260040160405180910390fd5b6002816000018190555050565b6000611762611b5a565b90506001816000018190555050565b806000808573ffffffffffffffffffffffffffffffffffffffff1673ffffffffffffffffffffffffffffffffffffffff168152602001908152602001600020600084815260200190815260200160002081905550818373ffffffffffffffffffffffffffffffffffffffff167f4522ac5e17505a5077136a0a1af3eeff89b4cf251211b73f48c55af50bafa1ac338460006040516118119392919061274e565b60405180910390a3505050565b6118ba848484846040516024016118389493929190612785565b6040516020818303038152906040527ff8f51b1e000000000000000000000000000000000000000000000000000000007bffffffffffffffffffffffffffffffffffffffffffffffffffffffff19166020820180517bffffffffffffffffffffffffffffffffffffffffffffffffffffffff8381831617835250505050611b40565b50505050565b61195882826040516024016118d69291906127d1565b6040516020818303038152906040527fb60e72cc000000000000000000000000000000000000000000000000000000007bffffffffffffffffffffffffffffffffffffffffffffffffffffffff19166020820180517bffffffffffffffffffffffffffffffffffffffffffffffffffffffff8381831617835250505050611b40565b5050565b60007ff0c57e16840df040f15088dc2f81fe391c3923bec73e23a9662efc9c229c6a0060001b905090565b61198f611b82565b6119c5576040517fd7e6bcf800000000000000000000000000000000000000000000000000000000815260040160405180910390fd5b565b6119cf611987565b60006119d9611b5a565b90506001816000018190555050565b6119f0611987565b600073ffffffffffffffffffffffffffffffffffffffff168173ffffffffffffffffffffffffffffffffffffffff1603611a625760006040517f1e4fbdf7000000000000000000000000000000000000000000000000000000008152600401611a599190612151565b60405180910390fd5b611a6b81611563565b50565b6000611a9c7f360894a13ba1a3210667c828492db98dca3e2076cc3735a920a3ca505d382bbc60001b611ba2565b60000160009054906101000a900473ffffffffffffffffffffffffffffffffffffffff16905090565b611ace82611bac565b8173ffffffffffffffffffffffffffffffffffffffff167fbc7cd75a20ee27fd9adebab32041f755214dbc6bffa90cc0225b39da2e5c2d3b60405160405180910390a2600081511115611b2b57611b258282611c79565b50611b34565b611b33611cfd565b5b5050565b600033905090565b611b5781611b4f611d3a611d5b565b63ffffffff16565b50565b60007f9b779b17422d0df92223018b32b4d1fa46e071723d6817e2486d003becc55f00905090565b6000611b8c611201565b60000160089054906101000a900460ff16905090565b6000819050919050565b60008173ffffffffffffffffffffffffffffffffffffffff163b03611c0857806040517f4c9c8ce3000000000000000000000000000000000000000000000000000000008152600401611bff9190612151565b60405180910390fd5b80611c357f360894a13ba1a3210667c828492db98dca3e2076cc3735a920a3ca505d382bbc60001b611ba2565b60000160006101000a81548173ffffffffffffffffffffffffffffffffffffffff021916908373ffffffffffffffffffffffffffffffffffffffff16021790555050565b60606000808473ffffffffffffffffffffffffffffffffffffffff1684604051611ca39190612848565b600060405180830381855af49150503d8060008114611cde576040519150601f19603f3d011682016040523d82523d6000602084013e611ce3565b606091505b5091509150611cf3858383611d66565b9250505092915050565b6000341115611d38576040517fb398979f00000000000000000000000000000000000000000000000000000000815260040160405180910390fd5b565b60006a636f6e736f6c652e6c6f679050600080835160208501845afa505050565b611e3a819050919050565b606082611d7b57611d7682611df5565b611ded565b60008251148015611da3575060008473ffffffffffffffffffffffffffffffffffffffff163b145b15611de557836040517f9996b315000000000000000000000000000000000000000000000000000000008152600401611ddc9190612151565b60405180910390fd5b819050611dee565b5b9392505050565b600081511115611e085780518082602001fd5b6040517fd6bda27500000000000000000000000000000000000000000000000000000000815260040160405180910390fd5b611e4261285f565b565b6000604051905090565b600080fd5b600080fd5b600073ffffffffffffffffffffffffffffffffffffffff82169050919050565b6000611e8382611e58565b9050919050565b611e9381611e78565b8114611e9e57600080fd5b50565b600081359050611eb081611e8a565b92915050565b600060208284031215611ecc57611ecb611e4e565b5b6000611eda84828501611ea1565b91505092915050565b6000819050919050565b611ef681611ee3565b8114611f0157600080fd5b50565b600081359050611f1381611eed565b92915050565b600080600060608486031215611f3257611f31611e4e565b5b6000611f4086828701611ea1565b9350506020611f5186828701611f04565b9250506040611f6286828701611f04565b9150509250925092565b600080fd5b600080fd5b6000601f19601f8301169050919050565b7f4e487b7100000000000000000000000000000000000000000000000000000000600052604160045260246000fd5b611fbf82611f76565b810181811067ffffffffffffffff82111715611fde57611fdd611f87565b5b80604052505050565b6000611ff1611e44565b9050611ffd8282611fb6565b919050565b600067ffffffffffffffff82111561201d5761201c611f87565b5b61202682611f76565b9050602081019050919050565b82818337600083830152505050565b600061205561205084612002565b611fe7565b90508281526020810184848401111561207157612070611f71565b5b61207c848285612033565b509392505050565b600082601f83011261209957612098611f6c565b5b81356120a9848260208601612042565b91505092915050565b600080604083850312156120c9576120c8611e4e565b5b60006120d785828601611ea1565b925050602083013567ffffffffffffffff8111156120f8576120f7611e53565b5b61210485828601612084565b9150509250929050565b6000819050919050565b6121218161210e565b82525050565b600060208201905061213c6000830184612118565b92915050565b61214b81611e78565b82525050565b60006020820190506121666000830184612142565b92915050565b6000806040838503121561218357612182611e4e565b5b600061219185828601611ea1565b92505060206121a285828601611f04565b9150509250929050565b600081519050919050565b600082825260208201905092915050565b60005b838110156121e65780820151818401526020810190506121cb565b60008484015250505050565b60006121fd826121ac565b61220781856121b7565b93506122178185602086016121c8565b61222081611f76565b840191505092915050565b6000602082019050818103600083015261224581846121f2565b905092915050565b6000819050919050565b600067ffffffffffffffff82169050919050565b6000819050919050565b600061229061228b6122868461224d565b61226b565b612257565b9050919050565b6122a081612275565b82525050565b60006020820190506122bb6000830184612297565b92915050565b6122ca81611ee3565b82525050565b60006020820190506122e560008301846122c1565b92915050565b6000815190506122fa81611e8a565b92915050565b60006020828403121561231657612315611e4e565b5b6000612324848285016122eb565b91505092915050565b7f4e6f7420746865206f776e657200000000000000000000000000000000000000600082015250565b6000612363600d836121b7565b915061236e8261232d565b602082019050919050565b6000602082019050818103600083015261239281612356565b9050919050565b60006040820190506123ae6000830185612142565b6123bb60208301846122c1565b9392505050565b7f666c6167206e656564732031206f722030000000000000000000000000000000600082015250565b60006123f86011836121b7565b9150612403826123c2565b602082019050919050565b60006020820190508181036000830152612427816123eb565b9050919050565b600061244961244461243f8461224d565b61226b565b611ee3565b9050919050565b6124598161242e565b82525050565b60006020820190506124746000830184612450565b92915050565b7f4d61726b6574706c616365206e6f7420617070726f7665640000000000000000600082015250565b60006124b06018836121b7565b91506124bb8261247a565b602082019050919050565b600060208201905081810360008301526124df816124a3565b9050919050565b7f4974656d206e6f74206c69737465640000000000000000000000000000000000600082015250565b600061251c600f836121b7565b9150612527826124e6565b602082019050919050565b6000602082019050818103600083015261254b8161250f565b9050919050565b7f496e636f72726563742070726963650000000000000000000000000000000000600082015250565b6000612588600f836121b7565b915061259382612552565b602082019050919050565b600060208201905081810360008301526125b78161257b565b9050919050565b60006060820190506125d36000830186612142565b6125e06020830185612142565b6125ed60408301846122c1565b949350505050565b7f5072696365206d757374206265203e2030000000000000000000000000000000600082015250565b600061262b6011836121b7565b9150612636826125f5565b602082019050919050565b6000602082019050818103600083015261265a8161261e565b9050919050565b6000819050919050565b600061268661268161267c84612661565b61226b565b611ee3565b9050919050565b6126968161266b565b82525050565b60006020820190506126b1600083018461268d565b92915050565b6126c08161210e565b81146126cb57600080fd5b50565b6000815190506126dd816126b7565b92915050565b6000602082840312156126f9576126f8611e4e565b5b6000612707848285016126ce565b91505092915050565b6000606082019050818103600083015261272a81866121f2565b90506127396020830185612142565b61274660408301846122c1565b949350505050565b60006060820190506127636000830186612142565b61277060208301856122c1565b61277d604083018461268d565b949350505050565b6000608082019050818103600083015261279f81876121f2565b90506127ae6020830186612142565b6127bb60408301856122c1565b6127c860608301846122c1565b95945050505050565b600060408201905081810360008301526127eb81856121f2565b90506127fa60208301846122c1565b9392505050565b600081519050919050565b600081905092915050565b600061282282612801565b61282c818561280c565b935061283c8185602086016121c8565b80840191505092915050565b60006128548284612817565b915081905092915050565b7f4e487b7100000000000000000000000000000000000000000000000000000000600052605160045260246000fdfe6164617074657252656376206e66743a20257320746f6b656e49643a2025642070726963653a20256420a264697066735822122078bc15131e82d55d7e39f0654a38406361a80511e5d1fdd4cd1d7e8e8b777f6964736f6c634300081c0033",
  "linkReferences": {},
  "deployedLinkReferences": {}
}